{
  "_format": "hh-sol-artifact-1",
  "contractName": "BlueVaultToken",
  "sourceName": "contracts/BlueVaultToken.sol",
  "abi": [
    {
      "inputs": [
        {
          "internalType": "string",
          "name": "name",
          "type": "string"
        },
        {
          "internalType": "string",
          "name": "symbol",
          "type": "string"
        }
      ],
      "stateMutability": "nonpayable",
      "type": "constructor"
    },
    {
      "inputs": [
        {
          "internalType": "address",
          "name": "spender",
          "type": "address"
        },
        {
          "internalType": "uint256",
          "name": "allowance",
          "type": "uint256"
        },
        {
          "internalType": "uint256",
          "name": "needed",
          "type": "uint256"
        }
      ],
      "name": "ERC20InsufficientAllowance",
      "type": "error"
    },
    {
      "inputs": [
        {
          "internalType": "address",
          "name": "sender",
          "type": "address"
        },
        {
          "internalType": "uint256",
          "name": "balance",
          "type": "uint256"
        },
        {
          "internalType": "uint256",
          "name": "needed",
          "type": "uint256"
        }
      ],
      "name": "ERC20InsufficientBalance",
      "type": "error"
    },
    {
      "inputs": [
        {
          "internalType": "address",
          "name": "approver",
          "type": "address"
        }
      ],
      "name": "ERC20InvalidApprover",
      "type": "error"
    },
    {
      "inputs": [
        {
          "internalType": "address",
          "name": "receiver",
          "type": "address"
        }
      ],
      "name": "ERC20InvalidReceiver",
      "type": "error"
    },
    {
      "inputs": [
        {
          "internalType": "address",
          "name": "sender",
          "type": "address"
        }
      ],
      "name": "ERC20InvalidSender",
      "type": "error"
    },
    {
      "inputs": [
        {
          "internalType": "address",
          "name": "spender",
          "type": "address"
        }
      ],
      "name": "ERC20InvalidSpender",
      "type": "error"
    },
    {
      "inputs": [
        {
          "internalType": "address",
          "name": "owner",
          "type": "address"
        }
      ],
      "name": "OwnableInvalidOwner",
      "type": "error"
    },
    {
      "inputs": [
        {
          "internalType": "address",
          "name": "account",
          "type": "address"
        }
      ],
      "name": "OwnableUnauthorizedAccount",
      "type": "error"
    },
    {
      "anonymous": false,
      "inputs": [
        {
          "indexed": true,
          "internalType": "address",
          "name": "owner",
          "type": "address"
        },
        {
          "indexed": true,
          "internalType": "address",
          "name": "spender",
          "type": "address"
        },
        {
          "indexed": false,
          "internalType": "uint256",
          "name": "value",
          "type": "uint256"
        }
      ],
      "name": "Approval",
      "type": "event"
    },
    {
      "anonymous": false,
      "inputs": [
        {
          "indexed": true,
          "internalType": "address",
          "name": "previousOwner",
          "type": "address"
        },
        {
          "indexed": true,
          "internalType": "address",
          "name": "newOwner",
          "type": "address"
        }
      ],
      "name": "OwnershipTransferred",
      "type": "event"
    },
    {
      "anonymous": false,
      "inputs": [
        {
          "indexed": true,
          "internalType": "address",
          "name": "recipient",
          "type": "address"
        },
        {
          "indexed": false,
          "internalType": "uint256",
          "name": "amount",
          "type": "uint256"
        },
        {
          "indexed": false,
          "internalType": "string",
          "name": "ipfsHash",
          "type": "string"
        },
        {
          "indexed": false,
          "internalType": "uint256",
          "name": "recordId",
          "type": "uint256"
        },
        {
          "indexed": false,
          "internalType": "uint256",
          "name": "timestamp",
          "type": "uint256"
        }
      ],
      "name": "TokensMinted",
      "type": "event"
    },
    {
      "anonymous": false,
      "inputs": [
        {
          "indexed": true,
          "internalType": "address",
          "name": "from",
          "type": "address"
        },
        {
          "indexed": true,
          "internalType": "address",
          "name": "to",
          "type": "address"
        },
        {
          "indexed": false,
          "internalType": "uint256",
          "name": "value",
          "type": "uint256"
        }
      ],
      "name": "Transfer",
      "type": "event"
    },
    {
      "inputs": [
        {
          "internalType": "address",
          "name": "owner",
          "type": "address"
        },
        {
          "internalType": "address",
          "name": "spender",
          "type": "address"
        }
      ],
      "name": "allowance",
      "outputs": [
        {
          "internalType": "uint256",
          "name": "",
          "type": "uint256"
        }
      ],
      "stateMutability": "view",
      "type": "function"
    },
    {
      "inputs": [
        {
          "internalType": "address",
          "name": "spender",
          "type": "address"
        },
        {
          "internalType": "uint256",
          "name": "value",
          "type": "uint256"
        }
      ],
      "name": "approve",
      "outputs": [
        {
          "internalType": "bool",
          "name": "",
          "type": "bool"
        }
      ],
      "stateMutability": "nonpayable",
      "type": "function"
    },
    {
      "inputs": [
        {
          "internalType": "address",
          "name": "account",
          "type": "address"
        }
      ],
      "name": "balanceOf",
      "outputs": [
        {
          "internalType": "uint256",
          "name": "",
          "type": "uint256"
        }
      ],
      "stateMutability": "view",
      "type": "function"
    },
    {
      "inputs": [],
      "name": "decimals",
      "outputs": [
        {
          "internalType": "uint8",
          "name": "",
          "type": "uint8"
        }
      ],
      "stateMutability": "view",
      "type": "function"
    },
    {
      "inputs": [
        {
          "internalType": "uint256",
          "name": "recordId",
          "type": "uint256"
        }
      ],
      "name": "getMintRecord",
      "outputs": [
        {
          "internalType": "address",
          "name": "recipient",
          "type": "address"
        },
        {
          "internalType": "uint256",
          "name": "amount",
          "type": "uint256"
        },
        {
          "internalType": "string",
          "name": "ipfsHash",
          "type": "string"
        },
        {
          "internalType": "uint256",
          "name": "timestamp",
          "type": "uint256"
        }
      ],
      "stateMutability": "view",
      "type": "function"
    },
    {
      "inputs": [],
      "name": "getTotalMintRecords",
      "outputs": [
        {
          "internalType": "uint256",
          "name": "",
          "type": "uint256"
        }
      ],
      "stateMutability": "view",
      "type": "function"
    },
    {
      "inputs": [
        {
          "internalType": "address",
          "name": "to",
          "type": "address"
        },
        {
          "internalType": "uint256",
          "name": "amount",
          "type": "uint256"
        },
        {
          "internalType": "string",
          "name": "ipfsHash",
          "type": "string"
        }
      ],
      "name": "mint",
      "outputs": [
        {
          "internalType": "uint256",
          "name": "",
          "type": "uint256"
        }
      ],
      "stateMutability": "nonpayable",
      "type": "function"
    },
    {
      "inputs": [],
      "name": "mintCount",
      "outputs": [
        {
          "internalType": "uint256",
          "name": "",
          "type": "uint256"
        }
      ],
      "stateMutability": "view",
      "type": "function"
    },
    {
      "inputs": [
        {
          "internalType": "uint256",
          "name": "",
          "type": "uint256"
        }
      ],
      "name": "mintRecords",
      "outputs": [
        {
          "internalType": "address",
          "name": "recipient",
          "type": "address"
        },
        {
          "internalType": "uint256",
          "name": "amount",
          "type": "uint256"
        },
        {
          "internalType": "string",
          "name": "ipfsHash",
          "type": "string"
        },
        {
          "internalType": "uint256",
          "name": "timestamp",
          "type": "uint256"
        }
      ],
      "stateMutability": "view",
      "type": "function"
    },
    {
      "inputs": [],
      "name": "name",
      "outputs": [
        {
          "internalType": "string",
          "name": "",
          "type": "string"
        }
      ],
      "stateMutability": "view",
      "type": "function"
    },
    {
      "inputs": [],
      "name": "owner",
      "outputs": [
        {
          "internalType": "address",
          "name": "",
          "type": "address"
        }
      ],
      "stateMutability": "view",
      "type": "function"
    },
    {
      "inputs": [],
      "name": "renounceOwnership",
      "outputs": [],
      "stateMutability": "nonpayable",
      "type": "function"
    },
    {
      "inputs": [],
      "name": "symbol",
      "outputs": [
        {
          "internalType": "string",
          "name": "",
          "type": "string"
        }
      ],
      "stateMutability": "view",
      "type": "function"
    },
    {
      "inputs": [],
      "name": "totalSupply",
      "outputs": [
        {
          "internalType": "uint256",
          "name": "",
          "type": "uint256"
        }
      ],
      "stateMutability": "view",
      "type": "function"
    },
    {
      "inputs": [
        {
          "internalType": "address",
          "name": "to",
          "type": "address"
        },
        {
          "internalType": "uint256",
          "name": "value",
          "type": "uint256"
        }
      ],
      "name": "transfer",
      "outputs": [
        {
          "internalType": "bool",
          "name": "",
          "type": "bool"
        }
      ],
      "stateMutability": "nonpayable",
      "type": "function"
    },
    {
      "inputs": [
        {
          "internalType": "address",
          "name": "from",
          "type": "address"
        },
        {
          "internalType": "address",
          "name": "to",
          "type": "address"
        },
        {
          "internalType": "uint256",
          "name": "value",
          "type": "uint256"
        }
      ],
      "name": "transferFrom",
      "outputs": [
        {
          "internalType": "bool",
          "name": "",
          "type": "bool"
        }
      ],
      "stateMutability": "nonpayable",
      "type": "function"
    },
    {
      "inputs": [
        {
          "internalType": "address",
          "name": "newOwner",
          "type": "address"
        }
      ],
      "name": "transferOwnership",
      "outputs": [],
      "stateMutability": "nonpayable",
      "type": "function"
    }
  ],
  "bytecode": "0x608060405234801561001057600080fd5b5060405161243e38038061243e83398181016040528101906100329190610323565b338282816003908161004491906105bc565b50806004908161005491906105bc565b505050600073ffffffffffffffffffffffffffffffffffffffff168173ffffffffffffffffffffffffffffffffffffffff16036100c95760006040517f1e4fbdf70000000000000000000000000000000000000000000000000000000081526004016100c091906106cf565b60405180910390fd5b6100d8816100e860201b60201c565b50600060078190555050506106ea565b6000600560009054906101000a900473ffffffffffffffffffffffffffffffffffffffff16905081600560006101000a81548173ffffffffffffffffffffffffffffffffffffffff021916908373ffffffffffffffffffffffffffffffffffffffff1602179055508173ffffffffffffffffffffffffffffffffffffffff168173ffffffffffffffffffffffffffffffffffffffff167f8be0079c531659141344cd1fd0a4f28419497f9722a3daafe3b4186f6b6457e060405160405180910390a35050565b6000604051905090565b600080fd5b600080fd5b600080fd5b600080fd5b6000601f19601f8301169050919050565b7f4e487b7100000000000000000000000000000000000000000000000000000000600052604160045260246000fd5b610215826101cc565b810181811067ffffffffffffffff82111715610234576102336101dd565b5b80604052505050565b60006102476101ae565b9050610253828261020c565b919050565b600067ffffffffffffffff821115610273576102726101dd565b5b61027c826101cc565b9050602081019050919050565b60005b838110156102a757808201518184015260208101905061028c565b60008484015250505050565b60006102c66102c184610258565b61023d565b9050828152602081018484840111156102e2576102e16101c7565b5b6102ed848285610289565b509392505050565b600082601f83011261030a576103096101c2565b5b815161031a8482602086016102b3565b91505092915050565b6000806040838503121561033a576103396101b8565b5b600083015167ffffffffffffffff811115610358576103576101bd565b5b610364858286016102f5565b925050602083015167ffffffffffffffff811115610385576103846101bd565b5b610391858286016102f5565b9150509250929050565b600081519050919050565b7f4e487b7100000000000000000000000000000000000000000000000000000000600052602260045260246000fd5b600060028204905060018216806103ed57607f821691505b602082108103610400576103ff6103a6565b5b50919050565b60008190508160005260206000209050919050565b60006020601f8301049050919050565b600082821b905092915050565b6000600883026104687fffffffffffffffffffffffffffffffffffffffffffffffffffffffffffffffff8261042b565b610472868361042b565b95508019841693508086168417925050509392505050565b6000819050919050565b6000819050919050565b60006104b96104b46104af8461048a565b610494565b61048a565b9050919050565b6000819050919050565b6104d38361049e565b6104e76104df826104c0565b848454610438565b825550505050565b600090565b6104fc6104ef565b6105078184846104ca565b505050565b5b8181101561052b576105206000826104f4565b60018101905061050d565b5050565b601f8211156105705761054181610406565b61054a8461041b565b81016020851015610559578190505b61056d6105658561041b565b83018261050c565b50505b505050565b600082821c905092915050565b600061059360001984600802610575565b1980831691505092915050565b60006105ac8383610582565b9150826002028217905092915050565b6105c58261039b565b67ffffffffffffffff8111156105de576105dd6101dd565b5b6105e882546103d5565b6105f382828561052f565b600060209050601f8311600181146106265760008415610614578287015190505b61061e85826105a0565b865550610686565b601f19841661063486610406565b60005b8281101561065c57848901518255600182019150602085019450602081019050610637565b868310156106795784890151610675601f891682610582565b8355505b6001600288020188555050505b505050505050565b600073ffffffffffffffffffffffffffffffffffffffff82169050919050565b60006106b98261068e565b9050919050565b6106c9816106ae565b82525050565b60006020820190506106e460008301846106c0565b92915050565b611d45806106f96000396000f3fe608060405234801561001057600080fd5b506004361061010b5760003560e01c80638f9e0007116100a2578063b6f8f40411610071578063b6f8f404146102ac578063cb07b7ff146102df578063d3fc986414610312578063dd62ed3e14610342578063f2fde38b146103725761010b565b80638f9e00071461022257806395d89b41146102405780639659867e1461025e578063a9059cbb1461027c5761010b565b8063313ce567116100de578063313ce567146101ac57806370a08231146101ca578063715018a6146101fa5780638da5cb5b146102045761010b565b806306fdde0314610110578063095ea7b31461012e57806318160ddd1461015e57806323b872dd1461017c575b600080fd5b61011861038e565b6040516101259190611317565b60405180910390f35b610148600480360381019061014391906113e1565b610420565b604051610155919061143c565b60405180910390f35b610166610443565b6040516101739190611466565b60405180910390f35b61019660048036038101906101919190611481565b61044d565b6040516101a3919061143c565b60405180910390f35b6101b461047c565b6040516101c191906114f0565b60405180910390f35b6101e460048036038101906101df919061150b565b610485565b6040516101f19190611466565b60405180910390f35b6102026104cd565b005b61020c6104e1565b6040516102199190611547565b60405180910390f35b61022a61050b565b6040516102379190611466565b60405180910390f35b610248610515565b6040516102559190611317565b60405180910390f35b6102666105a7565b6040516102739190611466565b60405180910390f35b610296600480360381019061029191906113e1565b6105ad565b6040516102a3919061143c565b60405180910390f35b6102c660048036038101906102c19190611562565b6105d0565b6040516102d6949392919061158f565b60405180910390f35b6102f960048036038101906102f49190611562565b6106a8565b604051610309949392919061158f565b60405180910390f35b61032c60048036038101906103279190611710565b610835565b6040516103399190611466565b60405180910390f35b61035c6004803603810190610357919061177f565b610a0c565b6040516103699190611466565b60405180910390f35b61038c6004803603810190610387919061150b565b610a93565b005b60606003805461039d906117ee565b80601f01602080910402602001604051908101604052809291908181526020018280546103c9906117ee565b80156104165780601f106103eb57610100808354040283529160200191610416565b820191906000526020600020905b8154815290600101906020018083116103f957829003601f168201915b5050505050905090565b60008061042b610b19565b9050610438818585610b21565b600191505092915050565b6000600254905090565b600080610458610b19565b9050610465858285610b33565b610470858585610bc8565b60019150509392505050565b60006012905090565b60008060008373ffffffffffffffffffffffffffffffffffffffff1673ffffffffffffffffffffffffffffffffffffffff168152602001908152602001600020549050919050565b6104d5610cbc565b6104df6000610d43565b565b6000600560009054906101000a900473ffffffffffffffffffffffffffffffffffffffff16905090565b6000600754905090565b606060048054610524906117ee565b80601f0160208091040260200160405190810160405280929190818152602001828054610550906117ee565b801561059d5780601f106105725761010080835404028352916020019161059d565b820191906000526020600020905b81548152906001019060200180831161058057829003601f168201915b5050505050905090565b60075481565b6000806105b8610b19565b90506105c5818585610bc8565b600191505092915050565b60066020528060005260406000206000915090508060000160009054906101000a900473ffffffffffffffffffffffffffffffffffffffff169080600101549080600201805461061f906117ee565b80601f016020809104026020016040519081016040528092919081815260200182805461064b906117ee565b80156106985780601f1061066d57610100808354040283529160200191610698565b820191906000526020600020905b81548152906001019060200180831161067b57829003601f168201915b5050505050908060030154905084565b6000806060600060075485106106f3576040517f08c379a00000000000000000000000000000000000000000000000000000000081526004016106ea9061186b565b60405180910390fd5b6000600660008781526020019081526020016000206040518060800160405290816000820160009054906101000a900473ffffffffffffffffffffffffffffffffffffffff1673ffffffffffffffffffffffffffffffffffffffff1673ffffffffffffffffffffffffffffffffffffffff16815260200160018201548152602001600282018054610783906117ee565b80601f01602080910402602001604051908101604052809291908181526020018280546107af906117ee565b80156107fc5780601f106107d1576101008083540402835291602001916107fc565b820191906000526020600020905b8154815290600101906020018083116107df57829003601f168201915b50505050508152602001600382015481525050905080600001518160200151826040015183606001519450945094509450509193509193565b600061083f610cbc565b60008311610882576040517f08c379a0000000000000000000000000000000000000000000000000000000008152600401610879906118d7565b60405180910390fd5b60008251116108c6576040517f08c379a00000000000000000000000000000000000000000000000000000000081526004016108bd90611943565b60405180910390fd5b6108d08484610e09565b6000600754905060405180608001604052808673ffffffffffffffffffffffffffffffffffffffff168152602001858152602001848152602001428152506006600083815260200190815260200160002060008201518160000160006101000a81548173ffffffffffffffffffffffffffffffffffffffff021916908373ffffffffffffffffffffffffffffffffffffffff1602179055506020820151816001015560408201518160020190816109879190611b0f565b5060608201518160030155905050600760008154809291906109a890611c10565b91905055508473ffffffffffffffffffffffffffffffffffffffff167fbd2c987ced94c711b8c71d43a90306b999b7e7b07ebda0f110e9b55032345bc7858584426040516109f99493929190611c58565b60405180910390a2809150509392505050565b6000600160008473ffffffffffffffffffffffffffffffffffffffff1673ffffffffffffffffffffffffffffffffffffffff16815260200190815260200160002060008373ffffffffffffffffffffffffffffffffffffffff1673ffffffffffffffffffffffffffffffffffffffff16815260200190815260200160002054905092915050565b610a9b610cbc565b600073ffffffffffffffffffffffffffffffffffffffff168173ffffffffffffffffffffffffffffffffffffffff1603610b0d5760006040517f1e4fbdf7000000000000000000000000000000000000000000000000000000008152600401610b049190611547565b60405180910390fd5b610b1681610d43565b50565b600033905090565b610b2e8383836001610e8b565b505050565b6000610b3f8484610a0c565b90507fffffffffffffffffffffffffffffffffffffffffffffffffffffffffffffffff811015610bc25781811015610bb2578281836040517ffb8f41b2000000000000000000000000000000000000000000000000000000008152600401610ba993929190611ca4565b60405180910390fd5b610bc184848484036000610e8b565b5b50505050565b600073ffffffffffffffffffffffffffffffffffffffff168373ffffffffffffffffffffffffffffffffffffffff1603610c3a5760006040517f96c6fd1e000000000000000000000000000000000000000000000000000000008152600401610c319190611547565b60405180910390fd5b600073ffffffffffffffffffffffffffffffffffffffff168273ffffffffffffffffffffffffffffffffffffffff1603610cac5760006040517fec442f05000000000000000000000000000000000000000000000000000000008152600401610ca39190611547565b60405180910390fd5b610cb7838383611062565b505050565b610cc4610b19565b73ffffffffffffffffffffffffffffffffffffffff16610ce26104e1565b73ffffffffffffffffffffffffffffffffffffffff1614610d4157610d05610b19565b6040517f118cdaa7000000000000000000000000000000000000000000000000000000008152600401610d389190611547565b60405180910390fd5b565b6000600560009054906101000a900473ffffffffffffffffffffffffffffffffffffffff16905081600560006101000a81548173ffffffffffffffffffffffffffffffffffffffff021916908373ffffffffffffffffffffffffffffffffffffffff1602179055508173ffffffffffffffffffffffffffffffffffffffff168173ffffffffffffffffffffffffffffffffffffffff167f8be0079c531659141344cd1fd0a4f28419497f9722a3daafe3b4186f6b6457e060405160405180910390a35050565b600073ffffffffffffffffffffffffffffffffffffffff168273ffffffffffffffffffffffffffffffffffffffff1603610e7b5760006040517fec442f05000000000000000000000000000000000000000000000000000000008152600401610e729190611547565b60405180910390fd5b610e8760008383611062565b5050565b600073ffffffffffffffffffffffffffffffffffffffff168473ffffffffffffffffffffffffffffffffffffffff1603610efd5760006040517fe602df05000000000000000000000000000000000000000000000000000000008152600401610ef49190611547565b60405180910390fd5b600073ffffffffffffffffffffffffffffffffffffffff168373ffffffffffffffffffffffffffffffffffffffff1603610f6f5760006040517f94280d62000000000000000000000000000000000000000000000000000000008152600401610f669190611547565b60405180910390fd5b81600160008673ffffffffffffffffffffffffffffffffffffffff1673ffffffffffffffffffffffffffffffffffffffff16815260200190815260200160002060008573ffffffffffffffffffffffffffffffffffffffff1673ffffffffffffffffffffffffffffffffffffffff16815260200190815260200160002081905550801561105c578273ffffffffffffffffffffffffffffffffffffffff168473ffffffffffffffffffffffffffffffffffffffff167f8c5be1e5ebec7d5bd14f71427d1e84f3dd0314c0f7b2291e5b200ac8c7c3b925846040516110539190611466565b60405180910390a35b50505050565b600073ffffffffffffffffffffffffffffffffffffffff168373ffffffffffffffffffffffffffffffffffffffff16036110b45780600260008282546110a89190611cdb565b92505081905550611187565b60008060008573ffffffffffffffffffffffffffffffffffffffff1673ffffffffffffffffffffffffffffffffffffffff16815260200190815260200160002054905081811015611140578381836040517fe450d38c00000000000000000000000000000000000000000000000000000000815260040161113793929190611ca4565b60405180910390fd5b8181036000808673ffffffffffffffffffffffffffffffffffffffff1673ffffffffffffffffffffffffffffffffffffffff16815260200190815260200160002081905550505b600073ffffffffffffffffffffffffffffffffffffffff168273ffffffffffffffffffffffffffffffffffffffff16036111d0578060026000828254039250508190555061121d565b806000808473ffffffffffffffffffffffffffffffffffffffff1673ffffffffffffffffffffffffffffffffffffffff168152602001908152602001600020600082825401925050819055505b8173ffffffffffffffffffffffffffffffffffffffff168373ffffffffffffffffffffffffffffffffffffffff167fddf252ad1be2c89b69c2b068fc378daa952ba7f163c4a11628f55a4df523b3ef8360405161127a9190611466565b60405180910390a3505050565b600081519050919050565b600082825260208201905092915050565b60005b838110156112c15780820151818401526020810190506112a6565b60008484015250505050565b6000601f19601f8301169050919050565b60006112e982611287565b6112f38185611292565b93506113038185602086016112a3565b61130c816112cd565b840191505092915050565b6000602082019050818103600083015261133181846112de565b905092915050565b6000604051905090565b600080fd5b600080fd5b600073ffffffffffffffffffffffffffffffffffffffff82169050919050565b60006113788261134d565b9050919050565b6113888161136d565b811461139357600080fd5b50565b6000813590506113a58161137f565b92915050565b6000819050919050565b6113be816113ab565b81146113c957600080fd5b50565b6000813590506113db816113b5565b92915050565b600080604083850312156113f8576113f7611343565b5b600061140685828601611396565b9250506020611417858286016113cc565b9150509250929050565b60008115159050919050565b61143681611421565b82525050565b6000602082019050611451600083018461142d565b92915050565b611460816113ab565b82525050565b600060208201905061147b6000830184611457565b92915050565b60008060006060848603121561149a57611499611343565b5b60006114a886828701611396565b93505060206114b986828701611396565b92505060406114ca868287016113cc565b9150509250925092565b600060ff82169050919050565b6114ea816114d4565b82525050565b600060208201905061150560008301846114e1565b92915050565b60006020828403121561152157611520611343565b5b600061152f84828501611396565b91505092915050565b6115418161136d565b82525050565b600060208201905061155c6000830184611538565b92915050565b60006020828403121561157857611577611343565b5b6000611586848285016113cc565b91505092915050565b60006080820190506115a46000830187611538565b6115b16020830186611457565b81810360408301526115c381856112de565b90506115d26060830184611457565b95945050505050565b600080fd5b600080fd5b7f4e487b7100000000000000000000000000000000000000000000000000000000600052604160045260246000fd5b61161d826112cd565b810181811067ffffffffffffffff8211171561163c5761163b6115e5565b5b80604052505050565b600061164f611339565b905061165b8282611614565b919050565b600067ffffffffffffffff82111561167b5761167a6115e5565b5b611684826112cd565b9050602081019050919050565b82818337600083830152505050565b60006116b36116ae84611660565b611645565b9050828152602081018484840111156116cf576116ce6115e0565b5b6116da848285611691565b509392505050565b600082601f8301126116f7576116f66115db565b5b81356117078482602086016116a0565b91505092915050565b60008060006060848603121561172957611728611343565b5b600061173786828701611396565b9350506020611748868287016113cc565b925050604084013567ffffffffffffffff81111561176957611768611348565b5b611775868287016116e2565b9150509250925092565b6000806040838503121561179657611795611343565b5b60006117a485828601611396565b92505060206117b585828601611396565b9150509250929050565b7f4e487b7100000000000000000000000000000000000000000000000000000000600052602260045260246000fd5b6000600282049050600182168061180657607f821691505b602082108103611819576118186117bf565b5b50919050565b7f5265636f726420646f6573206e6f742065786973740000000000000000000000600082015250565b6000611855601583611292565b91506118608261181f565b602082019050919050565b6000602082019050818103600083015261188481611848565b9050919050565b7f416d6f756e74206d7573742062652067726561746572207468616e2030000000600082015250565b60006118c1601d83611292565b91506118cc8261188b565b602082019050919050565b600060208201905081810360008301526118f0816118b4565b9050919050565b7f4950465320686173682063616e6e6f7420626520656d70747900000000000000600082015250565b600061192d601983611292565b9150611938826118f7565b602082019050919050565b6000602082019050818103600083015261195c81611920565b9050919050565b60008190508160005260206000209050919050565b60006020601f8301049050919050565b600082821b905092915050565b6000600883026119c57fffffffffffffffffffffffffffffffffffffffffffffffffffffffffffffffff82611988565b6119cf8683611988565b95508019841693508086168417925050509392505050565b6000819050919050565b6000611a0c611a07611a02846113ab565b6119e7565b6113ab565b9050919050565b6000819050919050565b611a26836119f1565b611a3a611a3282611a13565b848454611995565b825550505050565b600090565b611a4f611a42565b611a5a818484611a1d565b505050565b5b81811015611a7e57611a73600082611a47565b600181019050611a60565b5050565b601f821115611ac357611a9481611963565b611a9d84611978565b81016020851015611aac578190505b611ac0611ab885611978565b830182611a5f565b50505b505050565b600082821c905092915050565b6000611ae660001984600802611ac8565b1980831691505092915050565b6000611aff8383611ad5565b9150826002028217905092915050565b611b1882611287565b67ffffffffffffffff811115611b3157611b306115e5565b5b611b3b82546117ee565b611b46828285611a82565b600060209050601f831160018114611b795760008415611b67578287015190505b611b718582611af3565b865550611bd9565b601f198416611b8786611963565b60005b82811015611baf57848901518255600182019150602085019450602081019050611b8a565b86831015611bcc5784890151611bc8601f891682611ad5565b8355505b6001600288020188555050505b505050505050565b7f4e487b7100000000000000000000000000000000000000000000000000000000600052601160045260246000fd5b6000611c1b826113ab565b91507fffffffffffffffffffffffffffffffffffffffffffffffffffffffffffffffff8203611c4d57611c4c611be1565b5b600182019050919050565b6000608082019050611c6d6000830187611457565b8181036020830152611c7f81866112de565b9050611c8e6040830185611457565b611c9b6060830184611457565b95945050505050565b6000606082019050611cb96000830186611538565b611cc66020830185611457565b611cd36040830184611457565b949350505050565b6000611ce6826113ab565b9150611cf1836113ab565b9250828201905080821115611d0957611d08611be1565b5b9291505056fea264697066735822122076fa0b6d5f6b36f501806874db8973fa37e1cc6b2b24c5f09bb0a6ea7062070264736f6c634300081c0033",
  "linkReferences": {},
  "deployedLinkReferences": {}
}